S00E000072656C6F6A312E73726563C9
S11300000C9434000C9449000C9449000C9449005D
S11300100C9449000C9449000C9449000C94490038
S11300200C9449000C9449000C9449000C94490028
S11300300C9449000C9449000C9449000C94490018
S11300400C9449000C9449000C9449000C94490008
S11300500C9449000C9449000C9449000C944900F8
S11300600C9449000C94490011241FBECFEFD8E032
S1130070DEBFCDBF11E0A0E0B1E0E8E6FBE002C0E6
S113008005900D92A032B107D9F70E9485010C9416
S1130090B2050C9400001092B90084E18093B8007A
S11300A084E08093BC00089584EA8093BC0080912E
S11300B0BC008823E4F78091BC008823E4F708950A
S11300C084E98093BC0089EF90E00197F1F700C0C8
S11300D0000008958093BB0084EC8093BC00809161
S11300E0BC008823E4F7089584EC8093BC008091DD
S11300F0BC008823E4F78091BB00089584E88093D2
S1130100BC008091BC008823E4F78091BB00089573
S11301100E9454008EE40E946A008FEF0E946A00DD
S113012087E893E10197F1F700C0000084E30E949F
S11301306A0080E30E946A0083EC99E00197F1F77A
S113014000C0000084E30E946A0080E30E946A0009
S113015089EF90E00197F1F700C0000084E30E946A
S11301606A0080E30E946A0089EF90E00197F1F74A
S113017000C0000084E20E946A0080E20E946A00DB
S113018089EF90E00197F1F700C000000E94600041
S11301900895CF93DF93C82F0E9454008EE40E94E9
S11301A06A00DC2FD07F8D2F8C600E946A008D2F17
S11301B088600E946A0080E1C89FE00111248C2FAE
S11301C08C600E946A008C2F0E946A000E9460006A
S11301D083EF91E00197F1F700C0000083EF91E015
S11301E00197F1F700C00000DF91CF9108950E94BC
S11301F04B000E9488008CE20E94C9008CE00E949F
S1130200C90086E00E94C90080E80E94C9000895E0
S1130210CF93DF93C82F0E9454008EE40E946A009B
S1130220DC2FD07F8D2F8D600E946A008D2F896016
S11302300E946A0080E1C89FE00111248C2F8D6028
S11302400E946A008C2F89600E946A000E946000EC
S113025083EF91E00197F1F700C0000083EF91E094
S11302600197F1F700C00000DF91CF910895E62FC8
S1130270F0E0E150FF4F9081890F81580E94C9003E
S1130280089581E00E94C90083EF91E00197F1F79E
S113029000C0000008950F931F93CF93DF938C0148
S11302A0C0E0D0E003C00E9408012196F801EC0FE1
S11302B0FD1F80818111F7CFDF91CF911F910F91A5
S11302C00895CF93DF93CDB7DEB7A0970FB6F89418
S11302D0DEBF0FBECDBF9E012B5D3F4FF9014191A3
S11302E051919F0160E270E0CE0101960E94BE022E
S11302F0CE0101960E944B01A0960FB6F894DEBF82
S11303000FBECDBFDF91CF9108950E944B000E9494
S1130310F7000E94F3010E94410149E36BE387E186
S11303200E94010248EE57E06CE085E00E944C0216
S11303300E942402D62EE72EF82E0E948102C62F98
S1130340D72F182F092F61E085E00E9437011F92F3
S1130350DF921F92EF921F92FF9282E091E09F93AF
S11303608F930E94610162E084E00E9437010F9341
S11303701F931F92DF931F92CF9381E191E09F938C
S11303808F930E9461012FE38DE093E02150804020
S11303909040E1F700C000008DB79EB740960FB6BD
S11303A0F8949EBF0FBE8DBFC3CF982F92959F70B8
S11303B0990F292F220F220F920F8F70890F089502
S11303C09DEC899F912D112496959695969520E103
S11303D0929FA0011124990F292F220F220F920F0F
S11303E0891B842B08950E94540080ED0E946A00AA
S11303F080E00E946A0080E00E946A000E9460001F
S113040008951F93CF93DF93C82FD62F142F0E94E4
S1130410540080ED0E946A0080E00E946A00812FEF
S11304200E94E0010E946A008D2F0E94E0010E9458
S11304306A008C2F0E94E0010E946A000E94600002
S1130440DF91CF911F9108951F93CF93DF930E9463
S1130450540080ED0E946A0080E00E946A000E94BD
S1130460540081ED0E946A000E9474000E94D5012C
S1130470182F0E9474000E94D501D82F0E947E007C
S11304800E94D501C82F0E946000612F7D2F8C2F00
S1130490DF91CF911F9108950F931F93CF93DF9313
S11304A0082F162FEA010E94540080ED0E946A0072
S11304B084E00E946A00802F0E94E0010E946A008A
S11304C0812F0E94E0010E946A009E0136952795C3
S11304D036952795ABE7B4E10E94AF0296958795D0
S11304E03C2F24E6829F30191124832F0E94E001BF
S11304F00E946A000E946000DF91CF911F910F91CA
S113050008950F931F93CF93DF930E94540080EDBF
S11305100E946A0084E00E946A000E94540081EDF7
S11305200E946A000E9474000E94D501082F0E9454
S113053074000E94D501182F0E947E000E94D501EC
S1130540C82FD0E0C053D84F0E946000602F712F95
S11305508C2F9D2FDF91CF911F910F910895A29F12
S1130560B001B39FC001A39F700D811D1124911D83
S1130570B29F700D811D1124911D0895AEE0B0E06D
S1130580E4ECF2E00C9489058C01FA0186E08C839A
S11305901A83098377FF02C060E070E8CB010197FA
S11305A09E838D83A901BF01CE0101960E94EA02B8
S11305B04D815E8157FD0AC02F813885421753074C
S11305C00CF49A01F801E20FF31F10822E96E4E076
S11305D00C94A505ABE0B0E0E0EFF2E00C947B05F1
S11305E06C017B018A01FC0117821682838181FFE1
S11305F0CCC1CE0101963C01F6019381F70193FD34
S1130600859193FF81917F01882309F4BAC18532D2
S113061039F493FD859193FF81917F01853229F40B
S1130620B60190E00E94E104E7CF912C212C312CFB
S1130630FFE1F315D8F08B3279F038F4803279F099
S11306408332A1F4232D20611DC08D3261F08033EB
S113065069F4232D216016C0832D8260382EE32D8A
S1130660E4603E2E2AC0F32DF8601DC037FC2DC077
S113067020ED280F2A3040F08E32B9F436FC81C1C7
S1130680232D2064322E19C036FE06C08AE0989EBF
S1130690200D1124922E11C0EAE02E9E200D11246B
S11306A0222EF32DF0623F2E08C08C3621F4832DC8
S11306B08068382E02C0883641F4F70193FD859195
S11306C093FF81917F018111B3CF982F9F7D955422
S11306D0933028F40C5F1F4F9FE399830DC083363A
S11306E031F0833771F0833509F059C021C0F80126
S11306F0808189830E5F1F4F88248394912C53013A
S113070013C02801F2E04F0E511CF801A080B18003
S113071036FE03C0692D70E002C06FEF7FEFC501A4
S11307200E94D6044C018201F32DFF773F2E16C0A0
S1130730280122E0420E511CF801A080B18036FE4F
S113074003C0692D70E002C06FEF7FEFC5010E9406
S1130750CB044C01F32DF0683F2E820133FC1BC007
S1130760822D90E088169906B0F4B60180E290E0FC
S11307700E94E1042A94F4CFF50137FC859137FEF9
S113078081915F01B60190E00E94E10421102A9456
S113079021E0821A91088114910471F7E8C084362B
S11307A011F0893641F5F80137FE07C06081718187
S11307B0828193810C5F1F4F08C060817181072E75
S11307C0000C880B990B0E5F1F4FF32DFF763F2E05
S11307D097FF09C090958095709561957F4F8F4FD5
S11307E09F4FF0683F2E2AE030E0A3010E941D05D0
S11307F0882E861845C0853731F4232D2F7EB22EDE
S11308002AE030E025C0932D997FB92E8F36C1F0B0
S113081018F4883579F0B5C0803719F0883721F09D
S1130820B0C0E92FE061BE2EB4FE0DC0FB2DF46014
S1130830BF2E09C034FE0AC0292F2660B22E06C07E
S113084028E030E005C020E130E002C020E132E0E1
S1130850F801B7FE07C060817181828193810C5FCA
S11308601F4F06C06081718180E090E00E5F1F4FD2
S1130870A3010E941D05882E8618FB2DFF773F2EAD
S113088036FE0DC0232D2E7FA22E891458F434FE7B
S11308900BC032FC09C0832D8E7EA82E05C0B82C57
S11308A0A32C03C0B82C01C0B92CA4FE0FC0FE01B8
S11308B0E80DF11D8081803321F49A2D997EA92EB3
S11308C009C0A2FE06C0B394B39404C08A2D8678EE
S11308D009F0B394A3FC11C0A0FE06C0B21488F4BE
S11308E0280C922C9B180EC0B21460F4B60180E25E
S11308F090E00E94E104B394F7CFB21418F42B18DB
S113090002C0982C212CA4FE10C0B60180E390E014
S11309100E94E104A2FE17C0A1FC03C088E790E096
S113092002C088E590E0B6010CC08A2D867859F0A3
S1130930A1FE02C08BE201C080E2A7FC8DE2B601F9
S113094090E00E94E104891438F4B60180E390E059
S11309500E94E1049A94F7CF8A94F301E80DF11D03
S11309608081B60190E00E94E1048110F5CF22203D
S113097009F442CEB60180E290E00E94E1042A9498
S1130980F6CFF6018681978102C08FEF9FEF2B96F9
S1130990E2E10C949705FC01059061507040011050
S11309A0D8F7809590958E0F9F1F0895FC01615094
S11309B0704001900110D8F7809590958E0F9F1F7D
S11309C008950F931F93CF93DF93FB01238121FDA0
S11309D003C08FEF9FEF2CC022FF16C046815781C2
S11309E0248135814217530744F4A081B1819D01CC
S11309F02F5F3F4F318320838C93268137812F5F74
S1130A003F4F3783268314C08B01EC01FB01008424
S1130A10F185E02D0995892BE1F6D80116968D9183
S1130A209C911797019617969C938E931697CE01D7
S1130A30DF91CF911F910F910895FA01AA272830D1
S1130A4051F1203181F1E8946F936E7F6E5F7F4F97
S1130A508F4F9F4FAF4FB1E03ED0B4E03CD0670F13
S1130A60781F891F9A1FA11D680F791F8A1F911D66
S1130A70A11D6A0F711D811D911DA11D20D009F4B6
S1130A8068943F912AE0269F11243019305D3193F8
S1130A90DEF6CF010895462F4770405D4193B3E0E1
S1130AA00FD0C9F7F6CF462F4F70405D4A3318F088
S1130AB0495D31FD4052419302D0A9F7EACFB4E039
S1130AC0A6959795879577956795BA95C9F70097F1
S1130AD06105710508959B01AC010A2E0694579592
S1130AE0479537952795BA95C9F7620F731F841FE9
S1130AF0951FA01D08952F923F924F925F926F927F
S1130B007F928F929F92AF92BF92CF92DF92EF9299
S1130B10FF920F931F93CF93DF93CDB7DEB7CA1B1A
S1130B20DB0B0FB6F894DEBF0FBECDBF09942A8845
S1130B30398848885F846E847D848C849B84AA84ED
S1130B40B984C884DF80EE80FD800C811B81AA817A
S1130B50B981CE0FD11D0FB6F894DEBF0FBECDBF45
S10B0B60ED010895F894FFCFA4
S1130B680040253032643A253032643A2530326404
S1130B7800253032642F253032642F253034640048
S90300A854
